{
  "_format": "hh-sol-artifact-1",
  "contractName": "ZombieOwnership",
  "sourceName": "contracts/zombies/ZombieOwnership.sol",
  "abi": [
    {
      "inputs": [],
      "stateMutability": "nonpayable",
      "type": "constructor"
    },
    {
      "anonymous": false,
      "inputs": [
        {
          "indexed": true,
          "internalType": "address",
          "name": "owner",
          "type": "address"
        },
        {
          "indexed": true,
          "internalType": "address",
          "name": "approved",
          "type": "address"
        },
        {
          "indexed": true,
          "internalType": "uint256",
          "name": "tokenId",
          "type": "uint256"
        }
      ],
      "name": "Approval",
      "type": "event"
    },
    {
      "anonymous": false,
      "inputs": [
        {
          "indexed": true,
          "internalType": "address",
          "name": "owner",
          "type": "address"
        },
        {
          "indexed": true,
          "internalType": "address",
          "name": "operator",
          "type": "address"
        },
        {
          "indexed": false,
          "internalType": "bool",
          "name": "approved",
          "type": "bool"
        }
      ],
      "name": "ApprovalForAll",
      "type": "event"
    },
    {
      "anonymous": false,
      "inputs": [
        {
          "indexed": false,
          "internalType": "uint256",
          "name": "zombieId",
          "type": "uint256"
        },
        {
          "indexed": true,
          "internalType": "address",
          "name": "owner",
          "type": "address"
        },
        {
          "indexed": false,
          "internalType": "string",
          "name": "name",
          "type": "string"
        },
        {
          "indexed": false,
          "internalType": "uint256",
          "name": "dna",
          "type": "uint256"
        }
      ],
      "name": "NewZombie",
      "type": "event"
    },
    {
      "anonymous": false,
      "inputs": [
        {
          "indexed": true,
          "internalType": "address",
          "name": "previousOwner",
          "type": "address"
        },
        {
          "indexed": true,
          "internalType": "address",
          "name": "newOwner",
          "type": "address"
        }
      ],
      "name": "OwnershipTransferred",
      "type": "event"
    },
    {
      "anonymous": false,
      "inputs": [
        {
          "indexed": true,
          "internalType": "address",
          "name": "from",
          "type": "address"
        },
        {
          "indexed": true,
          "internalType": "address",
          "name": "to",
          "type": "address"
        },
        {
          "indexed": true,
          "internalType": "uint256",
          "name": "tokenId",
          "type": "uint256"
        }
      ],
      "name": "Transfer",
      "type": "event"
    },
    {
      "inputs": [
        {
          "internalType": "address",
          "name": "_approved",
          "type": "address"
        },
        {
          "internalType": "uint256",
          "name": "_tokenId",
          "type": "uint256"
        }
      ],
      "name": "approve",
      "outputs": [],
      "stateMutability": "nonpayable",
      "type": "function"
    },
    {
      "inputs": [
        {
          "internalType": "uint256",
          "name": "_zombieId",
          "type": "uint256"
        },
        {
          "internalType": "uint256",
          "name": "_targetId",
          "type": "uint256"
        }
      ],
      "name": "attack",
      "outputs": [],
      "stateMutability": "nonpayable",
      "type": "function"
    },
    {
      "inputs": [
        {
          "internalType": "address",
          "name": "_owner",
          "type": "address"
        }
      ],
      "name": "balanceOf",
      "outputs": [
        {
          "internalType": "uint256",
          "name": "",
          "type": "uint256"
        }
      ],
      "stateMutability": "view",
      "type": "function"
    },
    {
      "inputs": [
        {
          "internalType": "uint256",
          "name": "_zombieId",
          "type": "uint256"
        },
        {
          "internalType": "uint256",
          "name": "_newDna",
          "type": "uint256"
        }
      ],
      "name": "changeDna",
      "outputs": [],
      "stateMutability": "nonpayable",
      "type": "function"
    },
    {
      "inputs": [
        {
          "internalType": "uint256",
          "name": "_zombieId",
          "type": "uint256"
        },
        {
          "internalType": "string",
          "name": "_newName",
          "type": "string"
        }
      ],
      "name": "changeName",
      "outputs": [],
      "stateMutability": "nonpayable",
      "type": "function"
    },
    {
      "inputs": [],
      "name": "countZombie",
      "outputs": [
        {
          "internalType": "uint256",
          "name": "",
          "type": "uint256"
        }
      ],
      "stateMutability": "view",
      "type": "function"
    },
    {
      "inputs": [
        {
          "internalType": "string",
          "name": "_name",
          "type": "string"
        }
      ],
      "name": "createRandomZombie",
      "outputs": [
        {
          "internalType": "uint256",
          "name": "",
          "type": "uint256"
        }
      ],
      "stateMutability": "nonpayable",
      "type": "function"
    },
    {
      "inputs": [
        {
          "internalType": "uint256",
          "name": "_zombieId",
          "type": "uint256"
        },
        {
          "internalType": "uint256",
          "name": "_kittyId",
          "type": "uint256"
        }
      ],
      "name": "feedOnKitty",
      "outputs": [],
      "stateMutability": "nonpayable",
      "type": "function"
    },
    {
      "inputs": [
        {
          "internalType": "uint256",
          "name": "tokenId",
          "type": "uint256"
        }
      ],
      "name": "getApproved",
      "outputs": [
        {
          "internalType": "address",
          "name": "",
          "type": "address"
        }
      ],
      "stateMutability": "view",
      "type": "function"
    },
    {
      "inputs": [],
      "name": "getCoolDownTime",
      "outputs": [
        {
          "internalType": "uint256",
          "name": "",
          "type": "uint256"
        }
      ],
      "stateMutability": "view",
      "type": "function"
    },
    {
      "inputs": [
        {
          "internalType": "address",
          "name": "_owner",
          "type": "address"
        }
      ],
      "name": "getZombiesByOwner",
      "outputs": [
        {
          "internalType": "uint256[]",
          "name": "",
          "type": "uint256[]"
        }
      ],
      "stateMutability": "view",
      "type": "function"
    },
    {
      "inputs": [
        {
          "internalType": "address",
          "name": "owner",
          "type": "address"
        },
        {
          "internalType": "address",
          "name": "operator",
          "type": "address"
        }
      ],
      "name": "isApprovedForAll",
      "outputs": [
        {
          "internalType": "bool",
          "name": "",
          "type": "bool"
        }
      ],
      "stateMutability": "view",
      "type": "function"
    },
    {
      "inputs": [
        {
          "internalType": "uint256",
          "name": "_zombieId",
          "type": "uint256"
        }
      ],
      "name": "levelUp",
      "outputs": [],
      "stateMutability": "payable",
      "type": "function"
    },
    {
      "inputs": [
        {
          "internalType": "address",
          "name": "playerAddress",
          "type": "address"
        },
        {
          "internalType": "string",
          "name": "name",
          "type": "string"
        }
      ],
      "name": "mintZombieToPlayer",
      "outputs": [
        {
          "internalType": "uint256",
          "name": "",
          "type": "uint256"
        }
      ],
      "stateMutability": "nonpayable",
      "type": "function"
    },
    {
      "inputs": [],
      "name": "name",
      "outputs": [
        {
          "internalType": "string",
          "name": "",
          "type": "string"
        }
      ],
      "stateMutability": "view",
      "type": "function"
    },
    {
      "inputs": [],
      "name": "owner",
      "outputs": [
        {
          "internalType": "address",
          "name": "",
          "type": "address"
        }
      ],
      "stateMutability": "view",
      "type": "function"
    },
    {
      "inputs": [
        {
          "internalType": "uint256",
          "name": "_tokenId",
          "type": "uint256"
        }
      ],
      "name": "ownerOf",
      "outputs": [
        {
          "internalType": "address",
          "name": "",
          "type": "address"
        }
      ],
      "stateMutability": "view",
      "type": "function"
    },
    {
      "inputs": [],
      "name": "renounceOwnership",
      "outputs": [],
      "stateMutability": "nonpayable",
      "type": "function"
    },
    {
      "inputs": [
        {
          "internalType": "address",
          "name": "from",
          "type": "address"
        },
        {
          "internalType": "address",
          "name": "to",
          "type": "address"
        },
        {
          "internalType": "uint256",
          "name": "tokenId",
          "type": "uint256"
        }
      ],
      "name": "safeTransferFrom",
      "outputs": [],
      "stateMutability": "nonpayable",
      "type": "function"
    },
    {
      "inputs": [
        {
          "internalType": "address",
          "name": "from",
          "type": "address"
        },
        {
          "internalType": "address",
          "name": "to",
          "type": "address"
        },
        {
          "internalType": "uint256",
          "name": "tokenId",
          "type": "uint256"
        },
        {
          "internalType": "bytes",
          "name": "_data",
          "type": "bytes"
        }
      ],
      "name": "safeTransferFrom",
      "outputs": [],
      "stateMutability": "nonpayable",
      "type": "function"
    },
    {
      "inputs": [
        {
          "internalType": "address",
          "name": "operator",
          "type": "address"
        },
        {
          "internalType": "bool",
          "name": "approved",
          "type": "bool"
        }
      ],
      "name": "setApprovalForAll",
      "outputs": [],
      "stateMutability": "nonpayable",
      "type": "function"
    },
    {
      "inputs": [
        {
          "internalType": "address",
          "name": "_address",
          "type": "address"
        }
      ],
      "name": "setKittyContractAddress",
      "outputs": [],
      "stateMutability": "nonpayable",
      "type": "function"
    },
    {
      "inputs": [
        {
          "internalType": "uint256",
          "name": "_fee",
          "type": "uint256"
        }
      ],
      "name": "setLevelUpFee",
      "outputs": [],
      "stateMutability": "nonpayable",
      "type": "function"
    },
    {
      "inputs": [
        {
          "internalType": "bytes4",
          "name": "interfaceId",
          "type": "bytes4"
        }
      ],
      "name": "supportsInterface",
      "outputs": [
        {
          "internalType": "bool",
          "name": "",
          "type": "bool"
        }
      ],
      "stateMutability": "view",
      "type": "function"
    },
    {
      "inputs": [],
      "name": "symbol",
      "outputs": [
        {
          "internalType": "string",
          "name": "",
          "type": "string"
        }
      ],
      "stateMutability": "view",
      "type": "function"
    },
    {
      "inputs": [
        {
          "internalType": "uint256",
          "name": "tokenId",
          "type": "uint256"
        }
      ],
      "name": "tokenURI",
      "outputs": [
        {
          "internalType": "string",
          "name": "",
          "type": "string"
        }
      ],
      "stateMutability": "view",
      "type": "function"
    },
    {
      "inputs": [
        {
          "internalType": "address",
          "name": "_from",
          "type": "address"
        },
        {
          "internalType": "address",
          "name": "_to",
          "type": "address"
        },
        {
          "internalType": "uint256",
          "name": "_tokenId",
          "type": "uint256"
        }
      ],
      "name": "transferFrom",
      "outputs": [],
      "stateMutability": "nonpayable",
      "type": "function"
    },
    {
      "inputs": [
        {
          "internalType": "address",
          "name": "newOwner",
          "type": "address"
        }
      ],
      "name": "transferOwnership",
      "outputs": [],
      "stateMutability": "nonpayable",
      "type": "function"
    },
    {
      "inputs": [
        {
          "internalType": "uint256",
          "name": "_updateCooldownTime",
          "type": "uint256"
        }
      ],
      "name": "updateCoolDownTime",
      "outputs": [
        {
          "internalType": "uint256",
          "name": "",
          "type": "uint256"
        }
      ],
      "stateMutability": "nonpayable",
      "type": "function"
    },
    {
      "inputs": [],
      "name": "withdraw",
      "outputs": [],
      "stateMutability": "nonpayable",
      "type": "function"
    },
    {
      "inputs": [
        {
          "internalType": "uint256",
          "name": "",
          "type": "uint256"
        }
      ],
      "name": "zombieToOwner",
      "outputs": [
        {
          "internalType": "address",
          "name": "",
          "type": "address"
        }
      ],
      "stateMutability": "view",
      "type": "function"
    },
    {
      "inputs": [
        {
          "internalType": "uint256",
          "name": "",
          "type": "uint256"
        }
      ],
      "name": "zombies",
      "outputs": [
        {
          "internalType": "string",
          "name": "name",
          "type": "string"
        },
        {
          "internalType": "uint256",
          "name": "dna",
          "type": "uint256"
        },
        {
          "internalType": "uint256",
          "name": "level",
          "type": "uint256"
        },
        {
          "internalType": "uint256",
          "name": "readyTime",
          "type": "uint256"
        },
        {
          "internalType": "uint256",
          "name": "winCount",
          "type": "uint256"
        },
        {
          "internalType": "uint256",
          "name": "lossCount",
          "type": "uint256"
        }
      ],
      "stateMutability": "view",
      "type": "function"
    }
  ],
  "bytecode": "0x60806040526010600155600154600a6200001a9190620002e2565b600255603c60035566038d7ea4c6800060085560006009556046600a553480156200004457600080fd5b506040518060400160405280600f81526020017f48756c6b204e4654205a6f6d62696500000000000000000000000000000000008152506040518060400160405280600581526020017f482d4e4654000000000000000000000000000000000000000000000000000000815250620000d1620000c56200010b60201b60201c565b6200011360201b60201c565b81600b9080519060200190620000e9929190620001d7565b5080600c908051906020019062000102929190620001d7565b505050620004ca565b600033905090565b60008060009054906101000a900473ffffffffffffffffffffffffffffffffffffffff169050816000806101000a81548173ffffffffffffffffffffffffffffffffffffffff021916908373ffffffffffffffffffffffffffffffffffffffff1602179055508173ffffffffffffffffffffffffffffffffffffffff168173ffffffffffffffffffffffffffffffffffffffff167f8be0079c531659141344cd1fd0a4f28419497f9722a3daafe3b4186f6b6457e060405160405180910390a35050565b828054620001e59062000429565b90600052602060002090601f01602090048101928262000209576000855562000255565b82601f106200022457805160ff191683800117855562000255565b8280016001018555821562000255579182015b828111156200025457825182559160200191906001019062000237565b5b50905062000264919062000268565b5090565b5b808211156200028357600081600090555060010162000269565b5090565b6000808291508390505b6001851115620002d957808604811115620002b157620002b06200045f565b5b6001851615620002c15780820291505b8081029050620002d185620004bd565b945062000291565b94509492505050565b6000620002ef826200041f565b9150620002fc836200041f565b92506200032b7fffffffffffffffffffffffffffffffffffffffffffffffffffffffffffffffff848462000333565b905092915050565b60008262000345576001905062000418565b8162000355576000905062000418565b81600181146200036e57600281146200037957620003af565b600191505062000418565b60ff8411156200038e576200038d6200045f565b5b8360020a915084821115620003a857620003a76200045f565b5b5062000418565b5060208310610133831016604e8410600b8410161715620003e95782820a905083811115620003e357620003e26200045f565b5b62000418565b620003f8848484600162000287565b925090508184048111156200041257620004116200045f565b5b81810290505b9392505050565b6000819050919050565b600060028204905060018216806200044257607f821691505b602082108114156200045957620004586200048e565b5b50919050565b7f4e487b7100000000000000000000000000000000000000000000000000000000600052601160045260246000fd5b7f4e487b7100000000000000000000000000000000000000000000000000000000600052602260045260246000fd5b60008160011c9050919050565b61459380620004da6000396000f3fe6080604052600436106101e35760003560e01c80636352211e11610102578063c39cbef111610095578063e1c1016a11610064578063e1c1016a1461071c578063e1fa763814610747578063e985e9c514610770578063f2fde38b146107ad576101e3565b8063c39cbef114610650578063c87b56dd14610679578063ccf670f8146106b6578063d7e0760e146106df576101e3565b80638da5cb5b116100d15780638da5cb5b146105a857806395d89b41146105d3578063a22cb465146105fe578063b88d4fde14610627576101e3565b80636352211e146104da57806370a0823114610517578063715018a6146105545780637bff0a011461056b576101e3565b806323b872dd1161017a5780634412e104116101495780634412e1041461040e578063528b7b8f1461044b5780635f4623f1146104885780635faf2880146104b1576101e3565b806323b872dd1461037a5780633417ae16146103a35780633ccfd60b146103ce57806342842e0e146103e5576101e3565b80630ce90ec2116101b65780630ce90ec2146102b657806317a7f4cc146102d25780631879d5aa146102fb5780632052465e14610338576101e3565b806301ffc9a7146101e857806306fdde0314610225578063081812fc14610250578063095ea7b31461028d575b600080fd5b3480156101f457600080fd5b5061020f600480360381019061020a919061345b565b6107d6565b60405161021c9190613a2a565b60405180910390f35b34801561023157600080fd5b5061023a6108b8565b6040516102479190613a45565b60405180910390f35b34801561025c57600080fd5b50610277600480360381019061027291906134ee565b61094a565b60405161028491906139a1565b60405180910390f35b34801561029957600080fd5b506102b460048036038101906102af9190613344565b6109cf565b005b6102d060048036038101906102cb91906134ee565b610b23565b005b3480156102de57600080fd5b506102f960048036038101906102f4919061356b565b610be2565b005b34801561030757600080fd5b50610322600480360381019061031d91906134ee565b610d0f565b60405161032f9190613c6f565b60405180910390f35b34801561034457600080fd5b5061035f600480360381019061035a91906134ee565b610d9c565b60405161037196959493929190613a67565b60405180910390f35b34801561038657600080fd5b506103a1600480360381019061039c91906131ea565b610e70565b005b3480156103af57600080fd5b506103b8610f54565b6040516103c59190613c6f565b60405180910390f35b3480156103da57600080fd5b506103e3610f5e565b005b3480156103f157600080fd5b5061040c600480360381019061040791906131ea565b611030565b005b34801561041a57600080fd5b5061043560048036038101906104309190613185565b611050565b6040516104429190613a08565b60405180910390f35b34801561045757600080fd5b50610472600480360381019061046d91906134ee565b6111ef565b60405161047f91906139a1565b60405180910390f35b34801561049457600080fd5b506104af60048036038101906104aa9190613185565b611222565b005b3480156104bd57600080fd5b506104d860048036038101906104d3919061356b565b6112e2565b005b3480156104e657600080fd5b5061050160048036038101906104fc91906134ee565b611436565b60405161050e91906139a1565b60405180910390f35b34801561052357600080fd5b5061053e60048036038101906105399190613185565b611473565b60405161054b9190613c6f565b60405180910390f35b34801561056057600080fd5b506105696114bc565b005b34801561057757600080fd5b50610592600480360381019061058d91906134ad565b611544565b60405161059f9190613c6f565b60405180910390f35b3480156105b457600080fd5b506105bd611655565b6040516105ca91906139a1565b60405180910390f35b3480156105df57600080fd5b506105e861167e565b6040516105f59190613a45565b60405180910390f35b34801561060a57600080fd5b50610625600480360381019061062091906132b4565b611710565b005b34801561063357600080fd5b5061064e60048036038101906106499190613239565b611891565b005b34801561065c57600080fd5b5061067760048036038101906106729190613517565b6118f3565b005b34801561068557600080fd5b506106a0600480360381019061069b91906134ee565b611a57565b6040516106ad9190613a45565b60405180910390f35b3480156106c257600080fd5b506106dd60048036038101906106d891906134ee565b611ba9565b005b3480156106eb57600080fd5b50610706600480360381019061070191906132f0565b611c2f565b6040516107139190613c6f565b60405180910390f35b34801561072857600080fd5b50610731611cd6565b60405161073e9190613c6f565b60405180910390f35b34801561075357600080fd5b5061076e6004803603810190610769919061356b565b611ce8565b005b34801561077c57600080fd5b50610797600480360381019061079291906131ae565b611f34565b6040516107a49190613a2a565b60405180910390f35b3480156107b957600080fd5b506107d460048036038101906107cf9190613185565b611fc8565b005b60007f80ac58cd000000000000000000000000000000000000000000000000000000007bffffffffffffffffffffffffffffffffffffffffffffffffffffffff1916827bffffffffffffffffffffffffffffffffffffffffffffffffffffffff191614806108a157507f5b5e139f000000000000000000000000000000000000000000000000000000007bffffffffffffffffffffffffffffffffffffffffffffffffffffffff1916827bffffffffffffffffffffffffffffffffffffffffffffffffffffffff1916145b806108b157506108b0826120c0565b5b9050919050565b6060600b80546108c790613f3c565b80601f01602080910402602001604051908101604052809291908181526020018280546108f390613f3c565b80156109405780601f1061091557610100808354040283529160200191610940565b820191906000526020600020905b81548152906001019060200180831161092357829003601f168201915b5050505050905090565b60006109558261212a565b610994576040517f08c379a000000000000000000000000000000000000000000000000000000000815260040161098b90613baf565b60405180910390fd5b600f600083815260200190815260200160002060009054906101000a900473ffffffffffffffffffffffffffffffffffffffff169050919050565b806005600082815260200190815260200160002060009054906101000a900473ffffffffffffffffffffffffffffffffffffffff1673ffffffffffffffffffffffffffffffffffffffff163373ffffffffffffffffffffffffffffffffffffffff1614610a71576040517f08c379a0000000000000000000000000000000000000000000000000000000008152600401610a6890613c2f565b60405180910390fd5b826012600084815260200190815260200160002060006101000a81548173ffffffffffffffffffffffffffffffffffffffff021916908373ffffffffffffffffffffffffffffffffffffffff160217905550818373ffffffffffffffffffffffffffffffffffffffff163373ffffffffffffffffffffffffffffffffffffffff167f8c5be1e5ebec7d5bd14f71427d1e84f3dd0314c0f7b2291e5b200ac8c7c3b92560405160405180910390a4505050565b6008543414610b3157600080fd5b610b90600160048381548110610b70577f4e487b7100000000000000000000000000000000000000000000000000000000600052603260045260246000fd5b90600052602060002090600602016002015461219690919063ffffffff16565b60048281548110610bca577f4e487b7100000000000000000000000000000000000000000000000000000000600052603260045260246000fd5b90600052602060002090600602016002018190555050565b6000600760009054906101000a900473ffffffffffffffffffffffffffffffffffffffff1673ffffffffffffffffffffffffffffffffffffffff1663e98b7f4d836040518263ffffffff1660e01b8152600401610c3f9190613c6f565b6101406040518083038186803b158015610c5857600080fd5b505afa158015610c6c573d6000803e3d6000fd5b505050506040513d601f19601f82011682018060405250810190610c909190613380565b90919293949596979850909192939495969750909192939495965090919293949550909192939450909192935090919250909150905080915050610d0a83826040518060400160405280600581526020017f6b697474790000000000000000000000000000000000000000000000000000008152506121ac565b505050565b6000610d196123db565b73ffffffffffffffffffffffffffffffffffffffff16610d37611655565b73ffffffffffffffffffffffffffffffffffffffff1614610d8d576040517f08c379a0000000000000000000000000000000000000000000000000000000008152600401610d8490613bcf565b60405180910390fd5b81600381905550819050919050565b60048181548110610dac57600080fd5b9060005260206000209060060201600091509050806000018054610dcf90613f3c565b80601f0160208091040260200160405190810160405280929190818152602001828054610dfb90613f3c565b8015610e485780601f10610e1d57610100808354040283529160200191610e48565b820191906000526020600020905b815481529060010190602001808311610e2b57829003601f168201915b5050505050908060010154908060020154908060030154908060040154908060050154905086565b3373ffffffffffffffffffffffffffffffffffffffff166005600083815260200190815260200160002060009054906101000a900473ffffffffffffffffffffffffffffffffffffffff1673ffffffffffffffffffffffffffffffffffffffff161480610f3b57503373ffffffffffffffffffffffffffffffffffffffff166012600083815260200190815260200160002060009054906101000a900473ffffffffffffffffffffffffffffffffffffffff1673ffffffffffffffffffffffffffffffffffffffff16145b610f4457600080fd5b610f4f8383836123e3565b505050565b6000600354905090565b610f666123db565b73ffffffffffffffffffffffffffffffffffffffff16610f84611655565b73ffffffffffffffffffffffffffffffffffffffff1614610fda576040517f08c379a0000000000000000000000000000000000000000000000000000000008152600401610fd190613bcf565b60405180910390fd5b6000610fe4611655565b90508073ffffffffffffffffffffffffffffffffffffffff166108fc479081150290604051600060405180830381858888f1935050505015801561102c573d6000803e3d6000fd5b5050565b61104b83838360405180602001604052806000815250611891565b505050565b60606000600660008473ffffffffffffffffffffffffffffffffffffffff1673ffffffffffffffffffffffffffffffffffffffff1681526020019081526020016000205467ffffffffffffffff8111156110d3577f4e487b7100000000000000000000000000000000000000000000000000000000600052604160045260246000fd5b6040519080825280602002602001820160405280156111015781602001602082028036833780820191505090505b5090506000805b6004805490508110156111e4578473ffffffffffffffffffffffffffffffffffffffff166005600083815260200190815260200160002060009054906101000a900473ffffffffffffffffffffffffffffffffffffffff1673ffffffffffffffffffffffffffffffffffffffff1614156111d157808383815181106111b6577f4e487b7100000000000000000000000000000000000000000000000000000000600052603260045260246000fd5b60200260200101818152505081806111cd90613f9f565b9250505b80806111dc90613f9f565b915050611108565b508192505050919050565b60056020528060005260406000206000915054906101000a900473ffffffffffffffffffffffffffffffffffffffff1681565b61122a6123db565b73ffffffffffffffffffffffffffffffffffffffff16611248611655565b73ffffffffffffffffffffffffffffffffffffffff161461129e576040517f08c379a000000000000000000000000000000000000000000000000000000000815260040161129590613bcf565b60405180910390fd5b80600760006101000a81548173ffffffffffffffffffffffffffffffffffffffff021916908373ffffffffffffffffffffffffffffffffffffffff16021790555050565b6014828160048281548110611320577f4e487b7100000000000000000000000000000000000000000000000000000000600052603260045260246000fd5b906000526020600020906006020160020154101561133d57600080fd5b836005600082815260200190815260200160002060009054906101000a900473ffffffffffffffffffffffffffffffffffffffff1673ffffffffffffffffffffffffffffffffffffffff163373ffffffffffffffffffffffffffffffffffffffff16146113df576040517f08c379a00000000000000000000000000000000000000000000000000000000081526004016113d690613c2f565b60405180910390fd5b836004868154811061141a577f4e487b7100000000000000000000000000000000000000000000000000000000600052603260045260246000fd5b9060005260206000209060060201600101819055505050505050565b60006005600083815260200190815260200160002060009054906101000a900473ffffffffffffffffffffffffffffffffffffffff169050919050565b6000600660008373ffffffffffffffffffffffffffffffffffffffff1673ffffffffffffffffffffffffffffffffffffffff168152602001908152602001600020549050919050565b6114c46123db565b73ffffffffffffffffffffffffffffffffffffffff166114e2611655565b73ffffffffffffffffffffffffffffffffffffffff1614611538576040517f08c379a000000000000000000000000000000000000000000000000000000000815260040161152f90613bcf565b60405180910390fd5b61154260006125c1565b565b600080600660003373ffffffffffffffffffffffffffffffffffffffff1673ffffffffffffffffffffffffffffffffffffffff1681526020019081526020016000205414806115c557503373ffffffffffffffffffffffffffffffffffffffff166115ad611655565b73ffffffffffffffffffffffffffffffffffffffff16145b611604576040517f08c379a00000000000000000000000000000000000000000000000000000000081526004016115fb90613acf565b60405180910390fd5b600061160f83612685565b905060648161161e9190614016565b816116299190613e52565b905061163583826126ca565b600060016004805490506116499190613e52565b90508092505050919050565b60008060009054906101000a900473ffffffffffffffffffffffffffffffffffffffff16905090565b6060600c805461168d90613f3c565b80601f01602080910402602001604051908101604052809291908181526020018280546116b990613f3c565b80156117065780601f106116db57610100808354040283529160200191611706565b820191906000526020600020905b8154815290600101906020018083116116e957829003601f168201915b5050505050905090565b6117186123db565b73ffffffffffffffffffffffffffffffffffffffff168273ffffffffffffffffffffffffffffffffffffffff161415611786576040517f08c379a000000000000000000000000000000000000000000000000000000000815260040161177d90613b2f565b60405180910390fd5b80601060006117936123db565b73ffffffffffffffffffffffffffffffffffffffff1673ffffffffffffffffffffffffffffffffffffffff16815260200190815260200160002060008473ffffffffffffffffffffffffffffffffffffffff1673ffffffffffffffffffffffffffffffffffffffff16815260200190815260200160002060006101000a81548160ff0219169083151502179055508173ffffffffffffffffffffffffffffffffffffffff166118406123db565b73ffffffffffffffffffffffffffffffffffffffff167f17307eab39ab6107e8899845ad3d59bd9653f200f220920489ca2b5937696c31836040516118859190613a2a565b60405180910390a35050565b6118a261189c6123db565b836128d8565b6118e1576040517f08c379a00000000000000000000000000000000000000000000000000000000081526004016118d890613c0f565b60405180910390fd5b6118ed848484846129b6565b50505050565b6002828160048281548110611931577f4e487b7100000000000000000000000000000000000000000000000000000000600052603260045260246000fd5b906000526020600020906006020160020154101561194e57600080fd5b836005600082815260200190815260200160002060009054906101000a900473ffffffffffffffffffffffffffffffffffffffff1673ffffffffffffffffffffffffffffffffffffffff163373ffffffffffffffffffffffffffffffffffffffff16146119f0576040517f08c379a00000000000000000000000000000000000000000000000000000000081526004016119e790613c2f565b60405180910390fd5b8360048681548110611a2b577f4e487b7100000000000000000000000000000000000000000000000000000000600052603260045260246000fd5b90600052602060002090600602016000019080519060200190611a4f929190612f7f565b505050505050565b6060611a628261212a565b611aa1576040517f08c379a0000000000000000000000000000000000000000000000000000000008152600401611a9890613b8f565b60405180910390fd5b6000601160008481526020019081526020016000208054611ac190613f3c565b80601f0160208091040260200160405190810160405280929190818152602001828054611aed90613f3c565b8015611b3a5780601f10611b0f57610100808354040283529160200191611b3a565b820191906000526020600020905b815481529060010190602001808311611b1d57829003601f168201915b505050505090506000611b4b612a12565b9050600081511415611b61578192505050611ba4565b600082511115611b96578082604051602001611b7e92919061392b565b60405160208183030381529060405292505050611ba4565b611b9f84612a29565b925050505b919050565b611bb16123db565b73ffffffffffffffffffffffffffffffffffffffff16611bcf611655565b73ffffffffffffffffffffffffffffffffffffffff1614611c25576040517f08c379a0000000000000000000000000000000000000000000000000000000008152600401611c1c90613bcf565b60405180910390fd5b8060088190555050565b6000611c396123db565b73ffffffffffffffffffffffffffffffffffffffff16611c57611655565b73ffffffffffffffffffffffffffffffffffffffff1614611cad576040517f08c379a0000000000000000000000000000000000000000000000000000000008152600401611ca490613bcf565b60405180910390fd5b6000611cb883611544565b9050611ccc611cc5611655565b8583610e70565b8091505092915050565b60008060048054905090508091505090565b816005600082815260200190815260200160002060009054906101000a900473ffffffffffffffffffffffffffffffffffffffff1673ffffffffffffffffffffffffffffffffffffffff163373ffffffffffffffffffffffffffffffffffffffff1614611d8a576040517f08c379a0000000000000000000000000000000000000000000000000000000008152600401611d8190613c2f565b60405180910390fd5b600060048481548110611dc6577f4e487b7100000000000000000000000000000000000000000000000000000000600052603260045260246000fd5b90600052602060002090600602019050600060048481548110611e12577f4e487b7100000000000000000000000000000000000000000000000000000000600052603260045260246000fd5b906000526020600020906006020190506000611e2e6064612ad0565b9050600a548111611ee257611e516001846004015461219690919063ffffffff16565b8360040181905550611e716001846002015461219690919063ffffffff16565b8360020181905550611e916001836005015461219690919063ffffffff16565b8260050181905550611edd8683600101546040518060400160405280600681526020017f7a6f6d62696500000000000000000000000000000000000000000000000000008152506121ac565b611f2c565b611efa6001846005015461219690919063ffffffff16565b8360050181905550611f1a6001836004015461219690919063ffffffff16565b8260040181905550611f2b83612b30565b5b505050505050565b6000601060008473ffffffffffffffffffffffffffffffffffffffff1673ffffffffffffffffffffffffffffffffffffffff16815260200190815260200160002060008373ffffffffffffffffffffffffffffffffffffffff1673ffffffffffffffffffffffffffffffffffffffff16815260200190815260200160002060009054906101000a900460ff16905092915050565b611fd06123db565b73ffffffffffffffffffffffffffffffffffffffff16611fee611655565b73ffffffffffffffffffffffffffffffffffffffff1614612044576040517f08c379a000000000000000000000000000000000000000000000000000000000815260040161203b90613bcf565b60405180910390fd5b600073ffffffffffffffffffffffffffffffffffffffff168173ffffffffffffffffffffffffffffffffffffffff1614156120b4576040517f08c379a00000000000000000000000000000000000000000000000000000000081526004016120ab90613b0f565b60405180910390fd5b6120bd816125c1565b50565b60007f01ffc9a7000000000000000000000000000000000000000000000000000000007bffffffffffffffffffffffffffffffffffffffffffffffffffffffff1916827bffffffffffffffffffffffffffffffffffffffffffffffffffffffff1916149050919050565b60008073ffffffffffffffffffffffffffffffffffffffff16600d600084815260200190815260200160002060009054906101000a900473ffffffffffffffffffffffffffffffffffffffff1673ffffffffffffffffffffffffffffffffffffffff1614159050919050565b600081836121a49190613dcb565b905092915050565b826005600082815260200190815260200160002060009054906101000a900473ffffffffffffffffffffffffffffffffffffffff1673ffffffffffffffffffffffffffffffffffffffff163373ffffffffffffffffffffffffffffffffffffffff161461224e576040517f08c379a000000000000000000000000000000000000000000000000000000000815260040161224590613c2f565b60405180910390fd5b60006004858154811061228a577f4e487b7100000000000000000000000000000000000000000000000000000000600052603260045260246000fd5b906000526020600020906006020190506122a381612b4f565b6122e2576040517f08c379a00000000000000000000000000000000000000000000000000000000081526004016122d990613c4f565b60405180910390fd5b600254846122f09190614016565b9350600060028583600101546123069190613dcb565b6123109190613e21565b90506040516020016123219061394f565b60405160208183030381529060405280519060200120846040516020016123489190613914565b60405160208183030381529060405280519060200120141561238b5760636064826123739190614016565b8261237e9190613e52565b6123889190613dcb565b90505b6123ca6040518060400160405280600781526020017f556e6e616d656400000000000000000000000000000000000000000000000000815250826126ca565b6123d382612b30565b505050505050565b600033905090565b6124366001600660008573ffffffffffffffffffffffffffffffffffffffff1673ffffffffffffffffffffffffffffffffffffffff1681526020019081526020016000205461219690919063ffffffff16565b600660008473ffffffffffffffffffffffffffffffffffffffff1673ffffffffffffffffffffffffffffffffffffffff168152602001908152602001600020819055506124cc6001600660003373ffffffffffffffffffffffffffffffffffffffff1673ffffffffffffffffffffffffffffffffffffffff16815260200190815260200160002054612b6090919063ffffffff16565b600660003373ffffffffffffffffffffffffffffffffffffffff1673ffffffffffffffffffffffffffffffffffffffff16815260200190815260200160002081905550816005600083815260200190815260200160002060006101000a81548173ffffffffffffffffffffffffffffffffffffffff021916908373ffffffffffffffffffffffffffffffffffffffff160217905550808273ffffffffffffffffffffffffffffffffffffffff168473ffffffffffffffffffffffffffffffffffffffff167fddf252ad1be2c89b69c2b068fc378daa952ba7f163c4a11628f55a4df523b3ef60405160405180910390a4505050565b60008060009054906101000a900473ffffffffffffffffffffffffffffffffffffffff169050816000806101000a81548173ffffffffffffffffffffffffffffffffffffffff021916908373ffffffffffffffffffffffffffffffffffffffff1602179055508173ffffffffffffffffffffffffffffffffffffffff168173ffffffffffffffffffffffffffffffffffffffff167f8be0079c531659141344cd1fd0a4f28419497f9722a3daafe3b4186f6b6457e060405160405180910390a35050565b600080826040516020016126999190613914565b6040516020818303038152906040528051906020012060001c9050600254816126c29190614016565b915050919050565b60046040518060c0016040528084815260200183815260200160018152602001600354426126f89190613dcb565b81526020016000815260200160008152509080600181540180825580915050600190039060005260206000209060060201600090919091909150600082015181600001908051906020019061274e929190612f7f565b506020820151816001015560408201518160020155606082015181600301556080820151816004015560a082015181600501555050600060016004805490506127979190613e52565b9050336005600083815260200190815260200160002060006101000a81548173ffffffffffffffffffffffffffffffffffffffff021916908373ffffffffffffffffffffffffffffffffffffffff16021790555061283e6001600660003373ffffffffffffffffffffffffffffffffffffffff1673ffffffffffffffffffffffffffffffffffffffff1681526020019081526020016000205461219690919063ffffffff16565b600660003373ffffffffffffffffffffffffffffffffffffffff1673ffffffffffffffffffffffffffffffffffffffff168152602001908152602001600020819055503373ffffffffffffffffffffffffffffffffffffffff167f6ec2878256fe9b9bf7689801ae80250b9286035bca64814afbb36f803a7dac108285856040516128cb93929190613c8a565b60405180910390a2505050565b60006128e38261212a565b612922576040517f08c379a000000000000000000000000000000000000000000000000000000000815260040161291990613b4f565b60405180910390fd5b600061292d83612b76565b90508073ffffffffffffffffffffffffffffffffffffffff168473ffffffffffffffffffffffffffffffffffffffff16148061299c57508373ffffffffffffffffffffffffffffffffffffffff166129848461094a565b73ffffffffffffffffffffffffffffffffffffffff16145b806129ad57506129ac8185611f34565b5b91505092915050565b6129c18484846123e3565b6129cd84848484612c28565b612a0c576040517f08c379a0000000000000000000000000000000000000000000000000000000008152600401612a0390613aef565b60405180910390fd5b50505050565b606060405180602001604052806000815250905090565b6060612a348261212a565b612a73576040517f08c379a0000000000000000000000000000000000000000000000000000000008152600401612a6a90613bef565b60405180910390fd5b6000612a7d612a12565b90506000815111612a9d5760405180602001604052806000815250612ac8565b80612aa784612dbf565b604051602001612ab892919061392b565b6040516020818303038152906040525b915050919050565b6000612ae8600160095461219690919063ffffffff16565b600981905550814233600954604051602001612b0693929190613964565b6040516020818303038152906040528051906020012060001c612b299190614016565b9050919050565b60035442612b3e9190613dcb565b63ffffffff16816003018190555050565b600042826003015411159050919050565b60008183612b6e9190613e52565b905092915050565b600080600d600084815260200190815260200160002060009054906101000a900473ffffffffffffffffffffffffffffffffffffffff169050600073ffffffffffffffffffffffffffffffffffffffff168173ffffffffffffffffffffffffffffffffffffffff161415612c1f576040517f08c379a0000000000000000000000000000000000000000000000000000000008152600401612c1690613b6f565b60405180910390fd5b80915050919050565b6000612c498473ffffffffffffffffffffffffffffffffffffffff16612f6c565b15612db2578373ffffffffffffffffffffffffffffffffffffffff1663150b7a02612c726123db565b8786866040518563ffffffff1660e01b8152600401612c9494939291906139bc565b602060405180830381600087803b158015612cae57600080fd5b505af1925050508015612cdf57506040513d601f19601f82011682018060405250810190612cdc9190613484565b60015b612d62573d8060008114612d0f576040519150601f19603f3d011682016040523d82523d6000602084013e612d14565b606091505b50600081511415612d5a576040517f08c379a0000000000000000000000000000000000000000000000000000000008152600401612d5190613aef565b60405180910390fd5b805181602001fd5b63150b7a0260e01b7bffffffffffffffffffffffffffffffffffffffffffffffffffffffff1916817bffffffffffffffffffffffffffffffffffffffffffffffffffffffff191614915050612db7565b600190505b949350505050565b60606000821415612e07576040518060400160405280600181526020017f30000000000000000000000000000000000000000000000000000000000000008152509050612f67565b600082905060005b60008214612e39578080612e2290613f9f565b915050600a82612e329190613e21565b9150612e0f565b60008167ffffffffffffffff811115612e7b577f4e487b7100000000000000000000000000000000000000000000000000000000600052604160045260246000fd5b6040519080825280601f01601f191660200182016040528015612ead5781602001600182028036833780820191505090505b5090505b60008514612f6057600182612ec69190613e52565b9150600a85612ed59190614016565b6030612ee19190613dcb565b60f81b818381518110612f1d577f4e487b7100000000000000000000000000000000000000000000000000000000600052603260045260246000fd5b60200101907effffffffffffffffffffffffffffffffffffffffffffffffffffffffffffff1916908160001a905350600a85612f599190613e21565b9450612eb1565b8093505050505b919050565b600080823b905060008111915050919050565b828054612f8b90613f3c565b90600052602060002090601f016020900481019282612fad5760008555612ff4565b82601f10612fc657805160ff1916838001178555612ff4565b82800160010185558215612ff4579182015b82811115612ff3578251825591602001919060010190612fd8565b5b5090506130019190613005565b5090565b5b8082111561301e576000816000905550600101613006565b5090565b600061303561303084613ced565b613cc8565b90508281526020810184848401111561304d57600080fd5b613058848285613efa565b509392505050565b600061307361306e84613d1e565b613cc8565b90508281526020810184848401111561308b57600080fd5b613096848285613efa565b509392505050565b6000813590506130ad81614501565b92915050565b6000813590506130c281614518565b92915050565b6000815190506130d781614518565b92915050565b6000813590506130ec8161452f565b92915050565b6000815190506131018161452f565b92915050565b600082601f83011261311857600080fd5b8135613128848260208601613022565b91505092915050565b600082601f83011261314257600080fd5b8135613152848260208601613060565b91505092915050565b60008135905061316a81614546565b92915050565b60008151905061317f81614546565b92915050565b60006020828403121561319757600080fd5b60006131a58482850161309e565b91505092915050565b600080604083850312156131c157600080fd5b60006131cf8582860161309e565b92505060206131e08582860161309e565b9150509250929050565b6000806000606084860312156131ff57600080fd5b600061320d8682870161309e565b935050602061321e8682870161309e565b925050604061322f8682870161315b565b9150509250925092565b6000806000806080858703121561324f57600080fd5b600061325d8782880161309e565b945050602061326e8782880161309e565b935050604061327f8782880161315b565b925050606085013567ffffffffffffffff81111561329c57600080fd5b6132a887828801613107565b91505092959194509250565b600080604083850312156132c757600080fd5b60006132d58582860161309e565b92505060206132e6858286016130b3565b9150509250929050565b6000806040838503121561330357600080fd5b60006133118582860161309e565b925050602083013567ffffffffffffffff81111561332e57600080fd5b61333a85828601613131565b9150509250929050565b6000806040838503121561335757600080fd5b60006133658582860161309e565b92505060206133768582860161315b565b9150509250929050565b6000806000806000806000806000806101408b8d0312156133a057600080fd5b60006133ae8d828e016130c8565b9a505060206133bf8d828e016130c8565b99505060406133d08d828e01613170565b98505060606133e18d828e01613170565b97505060806133f28d828e01613170565b96505060a06134038d828e01613170565b95505060c06134148d828e01613170565b94505060e06134258d828e01613170565b9350506101006134378d828e01613170565b9250506101206134498d828e01613170565b9150509295989b9194979a5092959850565b60006020828403121561346d57600080fd5b600061347b848285016130dd565b91505092915050565b60006020828403121561349657600080fd5b60006134a4848285016130f2565b91505092915050565b6000602082840312156134bf57600080fd5b600082013567ffffffffffffffff8111156134d957600080fd5b6134e584828501613131565b91505092915050565b60006020828403121561350057600080fd5b600061350e8482850161315b565b91505092915050565b6000806040838503121561352a57600080fd5b60006135388582860161315b565b925050602083013567ffffffffffffffff81111561355557600080fd5b61356185828601613131565b9150509250929050565b6000806040838503121561357e57600080fd5b600061358c8582860161315b565b925050602061359d8582860161315b565b9150509250929050565b60006135b383836138df565b60208301905092915050565b6135c881613e86565b82525050565b6135df6135da82613e86565b613fe8565b82525050565b60006135f082613d5f565b6135fa8185613d8d565b935061360583613d4f565b8060005b8381101561363657815161361d88826135a7565b975061362883613d80565b925050600181019050613609565b5085935050505092915050565b61364c81613e98565b82525050565b600061365d82613d6a565b6136678185613d9e565b9350613677818560208601613f09565b61368081614103565b840191505092915050565b600061369682613d75565b6136a08185613daf565b93506136b0818560208601613f09565b6136b981614103565b840191505092915050565b60006136cf82613d75565b6136d98185613dc0565b93506136e9818560208601613f09565b80840191505092915050565b6000613702602783613daf565b915061370d82614121565b604082019050919050565b6000613725603283613daf565b915061373082614170565b604082019050919050565b6000613748602683613daf565b9150613753826141bf565b604082019050919050565b600061376b601983613daf565b91506137768261420e565b602082019050919050565b600061378e602c83613daf565b915061379982614237565b604082019050919050565b60006137b1602983613daf565b91506137bc82614286565b604082019050919050565b60006137d4600583613dc0565b91506137df826142d5565b600582019050919050565b60006137f7603183613daf565b9150613802826142fe565b604082019050919050565b600061381a602c83613daf565b91506138258261434d565b604082019050919050565b600061383d602083613daf565b91506138488261439c565b602082019050919050565b6000613860602f83613daf565b915061386b826143c5565b604082019050919050565b6000613883603183613daf565b915061388e82614414565b604082019050919050565b60006138a6602183613daf565b91506138b182614463565b604082019050919050565b60006138c9602783613daf565b91506138d4826144b2565b604082019050919050565b6138e881613ef0565b82525050565b6138f781613ef0565b82525050565b61390e61390982613ef0565b61400c565b82525050565b600061392082846136c4565b915081905092915050565b600061393782856136c4565b915061394382846136c4565b91508190509392505050565b600061395a826137c7565b9150819050919050565b600061397082866138fd565b60208201915061398082856135ce565b60148201915061399082846138fd565b602082019150819050949350505050565b60006020820190506139b660008301846135bf565b92915050565b60006080820190506139d160008301876135bf565b6139de60208301866135bf565b6139eb60408301856138ee565b81810360608301526139fd8184613652565b905095945050505050565b60006020820190508181036000830152613a2281846135e5565b905092915050565b6000602082019050613a3f6000830184613643565b92915050565b60006020820190508181036000830152613a5f818461368b565b905092915050565b600060c0820190508181036000830152613a81818961368b565b9050613a9060208301886138ee565b613a9d60408301876138ee565b613aaa60608301866138ee565b613ab760808301856138ee565b613ac460a08301846138ee565b979650505050505050565b60006020820190508181036000830152613ae8816136f5565b9050919050565b60006020820190508181036000830152613b0881613718565b9050919050565b60006020820190508181036000830152613b288161373b565b9050919050565b60006020820190508181036000830152613b488161375e565b9050919050565b60006020820190508181036000830152613b6881613781565b9050919050565b60006020820190508181036000830152613b88816137a4565b9050919050565b60006020820190508181036000830152613ba8816137ea565b9050919050565b60006020820190508181036000830152613bc88161380d565b9050919050565b60006020820190508181036000830152613be881613830565b9050919050565b60006020820190508181036000830152613c0881613853565b9050919050565b60006020820190508181036000830152613c2881613876565b9050919050565b60006020820190508181036000830152613c4881613899565b9050919050565b60006020820190508181036000830152613c68816138bc565b9050919050565b6000602082019050613c8460008301846138ee565b92915050565b6000606082019050613c9f60008301866138ee565b8181036020830152613cb1818561368b565b9050613cc060408301846138ee565b949350505050565b6000613cd2613ce3565b9050613cde8282613f6e565b919050565b6000604051905090565b600067ffffffffffffffff821115613d0857613d076140d4565b5b613d1182614103565b9050602081019050919050565b600067ffffffffffffffff821115613d3957613d386140d4565b5b613d4282614103565b9050602081019050919050565b6000819050602082019050919050565b600081519050919050565b600081519050919050565b600081519050919050565b6000602082019050919050565b600082825260208201905092915050565b600082825260208201905092915050565b600082825260208201905092915050565b600081905092915050565b6000613dd682613ef0565b9150613de183613ef0565b9250827fffffffffffffffffffffffffffffffffffffffffffffffffffffffffffffffff03821115613e1657613e15614047565b5b828201905092915050565b6000613e2c82613ef0565b9150613e3783613ef0565b925082613e4757613e46614076565b5b828204905092915050565b6000613e5d82613ef0565b9150613e6883613ef0565b925082821015613e7b57613e7a614047565b5b828203905092915050565b6000613e9182613ed0565b9050919050565b60008115159050919050565b60007fffffffff0000000000000000000000000000000000000000000000000000000082169050919050565b600073ffffffffffffffffffffffffffffffffffffffff82169050919050565b6000819050919050565b82818337600083830152505050565b60005b83811015613f27578082015181840152602081019050613f0c565b83811115613f36576000848401525b50505050565b60006002820490506001821680613f5457607f821691505b60208210811415613f6857613f676140a5565b5b50919050565b613f7782614103565b810181811067ffffffffffffffff82111715613f9657613f956140d4565b5b80604052505050565b6000613faa82613ef0565b91507fffffffffffffffffffffffffffffffffffffffffffffffffffffffffffffffff821415613fdd57613fdc614047565b5b600182019050919050565b6000613ff382613ffa565b9050919050565b600061400582614114565b9050919050565b6000819050919050565b600061402182613ef0565b915061402c83613ef0565b92508261403c5761403b614076565b5b828206905092915050565b7f4e487b7100000000000000000000000000000000000000000000000000000000600052601160045260246000fd5b7f4e487b7100000000000000000000000000000000000000000000000000000000600052601260045260246000fd5b7f4e487b7100000000000000000000000000000000000000000000000000000000600052602260045260246000fd5b7f4e487b7100000000000000000000000000000000000000000000000000000000600052604160045260246000fd5b6000601f19601f8301169050919050565b60008160601b9050919050565b7f5a6f6d626965466163746f72793a20596f7520616c726561647920686176652060008201527f7a6f6d6269652e00000000000000000000000000000000000000000000000000602082015250565b7f4552433732313a207472616e7366657220746f206e6f6e20455243373231526560008201527f63656976657220696d706c656d656e7465720000000000000000000000000000602082015250565b7f4f776e61626c653a206e6577206f776e657220697320746865207a65726f206160008201527f6464726573730000000000000000000000000000000000000000000000000000602082015250565b7f4552433732313a20617070726f766520746f2063616c6c657200000000000000600082015250565b7f4552433732313a206f70657261746f7220717565727920666f72206e6f6e657860008201527f697374656e7420746f6b656e0000000000000000000000000000000000000000602082015250565b7f4552433732313a206f776e657220717565727920666f72206e6f6e657869737460008201527f656e7420746f6b656e0000000000000000000000000000000000000000000000602082015250565b7f6b69747479000000000000000000000000000000000000000000000000000000600082015250565b7f45524337323155524953746f726167653a2055524920717565727920666f722060008201527f6e6f6e6578697374656e7420746f6b656e000000000000000000000000000000602082015250565b7f4552433732313a20617070726f76656420717565727920666f72206e6f6e657860008201527f697374656e7420746f6b656e0000000000000000000000000000000000000000602082015250565b7f4f776e61626c653a2063616c6c6572206973206e6f7420746865206f776e6572600082015250565b7f4552433732314d657461646174613a2055524920717565727920666f72206e6f60008201527f6e6578697374656e7420746f6b656e0000000000000000000000000000000000602082015250565b7f4552433732313a207472616e736665722063616c6c6572206973206e6f74206f60008201527f776e6572206e6f7220617070726f766564000000000000000000000000000000602082015250565b7f5a6f6d62696546656564696e673a206f776e657220697320726571756972656460008201527f2e00000000000000000000000000000000000000000000000000000000000000602082015250565b7f5a6f6d62696546656564696e673a205a6f6d626965206e6f742072656164792060008201527f746f206665656400000000000000000000000000000000000000000000000000602082015250565b61450a81613e86565b811461451557600080fd5b50565b61452181613e98565b811461452c57600080fd5b50565b61453881613ea4565b811461454357600080fd5b50565b61454f81613ef0565b811461455a57600080fd5b5056fea2646970667358221220f3aff2b67a2785f6a285e0020aa40c395a988fe6e756649b7757ee469f81a4ab64736f6c63430008040033",
  "linkReferences": {},
  "deployedLinkReferences": {}
}